:020000040800F2
:10000000583200204501000857330008E924000851
:10001000553300085D0F0008D558000800000000A7
:100020000000000000000000000000009D3C0008EF
:10003000471D000800000000713400085D01000841
:100040005F0100085F0100085F0100085F01000810
:100050005F0100085F0100085F010008911D0008B2
:10006000AF1D0008CD1D00085F0100085F010008FA
:10007000991A0008B11A0008E91A0008051B0008BF
:100080003D1B0008751B0008650C00085F01000897
:100090005F0100085F0100085F010008EB1D000818
:1000A0005F0100085F0100085F0100085F010008B0
:1000B000213E0008493F0008E53F00085F010008B5
:1000C0005F0100085F0100085F0100085F01000890
:1000D0005F0100085F0100085F0100085F01000880
:1000E0005F0100085F0100085F0100085F01000870
:1000F0005F0100085F0100085F0100085F01000860
:100100005F0100085F010008814000085F010008EE
:100110005F0100085F0100081D4100085F01000841
:100120005F0100085F0100085F0100085F0100082F
:10013000DFF80CD000F0A4FC004800473569000847
:10014000583200200648804706480047FEE7FEE791
:10015000FEE7FEE7FEE7FEE7FEE7FEE7FEE7FEE777
:10016000D13D00083101000840EA01039B0703D09C
:1001700009E008C9121F08C0042AFAD203E011F8E6
:10018000013B00F8013B521EF9D27047D2B201E0A8
:1001900000F8012B491EFBD270470022F6E710B58C
:1001A00004460846114602462046FFF7EFFF204668
:1001B00010BD70B5064605F0E9FB046805460A2245
:1001C0000021304600F062FB2C6070BD80EA010225
:1001D00010B502F00042400026D04B0023D04FEA79
:1001E000106101EB1361C0F35600C3F3560340F4F2
:1001F000000043F40003A0FB0330A1F17F014FEAAC
:1002000000401C0401D000F1010050EA134001D469
:100210004000491EC3B20C0604EBD010401C40083D
:10022000802B02D003E0002010BD20F00100002947
:1002300000DA0020104310BD80EA010202F0004302
:1002400030B430F0004221F0004015D0A0B1C0F32E
:10025000C755C2F3C754C2F31601C0F31600651B9D
:1002600041F4000140F400007D35814201D36D1C52
:1002700000E04900002D02DA30BC002070474FF446
:1002800000020024814201D3091A144352084FEAA4
:100290004101F7D151B1814202D14FF0004105E057
:1002A00002D24FF0010101E06FF0010104EBC550F3
:1002B00030BC184400F022BB2DE9FE4F074681EA0E
:1002C0000300C00F0E46019021F0004123F00044CE
:1002D000B81AA14105D23846314617461E460B468C
:1002E000024623F00040104304D13846314603B0A3
:1002F000BDE8F08F350DC5F30A00C3F30A51029033
:10030000401A0090402868DAC3F3130040F4801BC1
:100310000198924620B10023D2EB030A63EB0B0B4A
:1003200000985946C0F14002504600F07EFA8046DF
:100330000C4650465946009A00F096FAC019714191
:10034000EF1785EA11533B4340D0019A52B3009A0C
:10035000012A11DC0022801A4FF0004361EB0551A5
:1003600003EA05538018CDE9002341F58011424688
:10037000234600F006FBBAE72E050025401B61EB83
:100380000601401941F58012001852412818A6F5BF
:10039000001343EB020140EAD470294318EB08082C
:1003A000644113E064084FEA38084FF0000244EA61
:1003B000C0744FEA0553801A61EB0301801841F5C0
:1003C000801149084FEA30008018594142462346BF
:1003D00003B0BDE8F04F00F0C7BA01980122400019
:1003E0000023D0EB020263EBE07301984FEAE07464
:1003F000381A66EB0401EBE783F000435CE781F019
:10040000004159E72DE9FE4F81EA030421F0004540
:1004100004F0004423F000414FF0000A009450EA39
:10042000050302D052EA010304D10020014603B0C3
:10043000BDE8F08FC1F30A53C5F30A541C44A0FB76
:1004400002B3C5F3130545F4801CC1F3130141F455
:1004500080180CFB023300FB083EA4F2F334810A3F
:10046000930A41EA8C5143EA88530194A1FB034764
:100470004FEA9C2505FB03734FEA982601FB0637DC
:100480003D05260545EA1435BBEB06016EEB050379
:10049000850E920E45EA8C1542EA8812A5FB0206EB
:1004A000261E67EB00070C0D44EA0334A41947EB42
:1004B0001350C1F313064FF0000319464FEA0333FC
:1004C00043EA165343EA0403019CE5FB0201A4F14D
:1004D0000C040294009C4FEA0632CDE900A400F01F
:1004E00050FAA4E72DE9F04D81EA030404F0004B33
:1004F00021F0004714464FF0000A23F0004150EA73
:10050000070220D054EA01021DD0C1F30A55024669
:10051000C1F31300C7F30A56C7F3130340F4801165
:1005200043F48013A6EB0508101BD64608F2FD38ED
:1005300073EB010002D308F1010801E092185B415E
:10054000B8F1000F03DA00200146BDE8F08D00206D
:100550004FF48015064607460EE0B2EB040C73EB31
:10056000010C04D3121B064363EB01032F436D08F8
:100570004FEA300092185B4150EA050CEDD152EA87
:10058000030012D082EA040083EA0105284303D164
:1005900000224FF0004308E0101B8B4102D20122E1
:1005A000002302E06FF0010253101AEB060047EB44
:1005B000085110EB0A0041EB0B01BDE8F04D00F0D3
:1005C000D3B970B521F0004303430CD0C1F30A54F2
:1005D0000026D4EB060566EB0603D417AD1AA3413B
:1005E00002DB0020014670BD001C41EB025170BDD2
:1005F000C10F80EAE0700844CA079623002100F08A
:1006000086B996230022114600F081B90EB5C10FBC
:1006100080EAE0700844CA07002140F233438DE8C5
:100620000E000A460B4600F0ACF903B000BD0EB553
:1006300040F2334102910021CDE900110A460B46F8
:1006400000F09FF903B000BD00F0004220F0004030
:10065000C10DC0F3160040F400007F2901DA00202C
:100660007047962903DCC1F19601C84001E0963934
:100670008840002AF4D04042704720F00040C10D6D
:10068000C0F3160040F400007F2901DA0020704713
:10069000962903DCC1F19601C8407047963988401D
:1006A000704770B5C1F30A5201F000450024C1F350
:1006B000130140F2FF3341F480119A4201DA002025
:1006C00070BD40F233439A42A2F2334203DC5242FD
:1006D00000F0BAF800E090402C43F1D0404270BDE9
:1006E000C1F30A52C1F3130140F2FF3341F4801108
:1006F0009A4201DA0020704740F233439A42A2F254
:10070000334202DC524200F09FB89040704700F044
:10071000004230F000400DD0C10D01F5607142EA99
:1007200001510022C0F31600520742EAD0024007EE
:1007300011437047002001467047000030B5002982
:1007400004DB4FF00044404264EB0101002B04DB6A
:100750004FF00044524264EB03038B4208BF8242D5
:1007600030BD000001F0004230B421F0004150EAF9
:10077000010306D00B0DA3F56073C1F31301002B29
:1007800002DC30BC00207047440F44EAC104C100C1
:10079000A01830BC00EBC35000F0B0B830B50B4629
:1007A000014600202022012409E021FA02F59D42A1
:1007B00005D303FA02F5491B04FA02F52844151E75
:1007C000A2F10102F1DC30BD2DE9F05F0546002009
:1007D00092469B4688460646814640241BE02846B2
:1007E00041464746224600F02FF852465B46801AA3
:1007F000994110D310461946224600F016F82D1ADA
:1008000067EB01084F4622460120002100F00DF859
:1008100017EB00094E41201EA4F10104DFDC48461D
:1008200031462A464346BDE8F09F202A04DB203AA1
:1008300000FA02F1002070479140C2F1200320FA33
:1008400003F3194390407047202A04DB203A21FA31
:1008500002F00021704721FA02F3D040C2F12002D9
:100860009140084319467047202A06DBCB17203AEF
:1008700041FA02F043EAE071704741FA02F3D040D6
:10088000C2F1200291400843194670472DE9F04714
:100890000F46914680460446002614F8015B2DB1B0
:1008A00000F000F90068405DC007F6D12B2D02D0A2
:1008B0002D2D18D0641E4A463946204600F0F6F821
:1008C00027B13968A14201D1C7F8008071054FF006
:1008D00002040BD54042002803DD05F057F8046000
:1008E000A007BDE8F08746F48066E4E70028F8DA60
:1008F00005F04CF804606FF00040F2E70029A8BF53
:100900007047401C490008BF20F00100704710B438
:10091000B0FA80FC00FA0CF050EA010404BF10BCED
:10092000704749B1CCF1200421FA04F411FA0CF11A
:1009300018BF012121430843A3EB0C01CB1D010685
:10094000000A002BBEBF002010BC704700EBC35054
:1009500010440029A4BF10BC7047401C490008BFC8
:1009600020F0010010BC704710B5002B08DA401CC5
:1009700041F1000192185B411A4301D120F00100BE
:1009800010BD2DE9F04D92469B4611B1B1FA81F2AE
:1009900002E0B0FA80F220329046FFF746FF0646AA
:1009A0000F4640EA0A0041EA0B0152465B46084303
:1009B00003D130463946BDE8F08D194652EA0100B0
:1009C00015D0C8F140025046FFF73EFF04460D46E1
:1009D000504659464246FFF728FF084301D0012000
:1009E00000E00020044345EAE07526432F430A98BF
:1009F0004FEAD625A0EB08000A304FEA46534FF0E5
:100A0000000245EA47554FEAD72402D500200146A7
:100A1000D1E7010550196141DDE908450019694137
:100A2000BDE8F04DA0E7C1F30A52C1F3130140F253
:100A3000FF3341F480119A4202DA002001467047E8
:100A400040F233439A42A2F2334202DC5242FFF7B1
:100A5000FBBEFFF7EABE000030B5002904DB4FF013
:100A60000044404264EB0101002B04DB4FF00044E2
:100A7000524264EB0303994208BF904230BD00002C
:100A8000064C074D06E0E06840F0010394E80700DB
:100A900098471034AC42F6D3FFF74EFBF8CF01086D
:100AA00018D00108004870474CCF01082DE9F05FCD
:100AB0008246007800278B4615460AF10104B946A4
:100AC000302801D09DB113E014F8010B01277828DC
:100AD00003D0582801D045B10AE00DB1102D07D13F
:100AE0000027102514F8010B02E0082500E00A2574
:100AF0000026B0460EE005FB080005FB06F10127C5
:100B000001EB10461FFA80F8B6F5803F00D3B946D6
:100B100014F8010B294600F069F80028EBDABBF164
:100B2000000F05D00FB1641E00E05446CBF8004022
:100B3000B9F1000F06D004F029FF02210160C81EA0
:100B4000BDE8F09F48EA0640FAE72DE9F04D0023A2
:100B50001A461B1A8A4103DB00200146BDE8F08DCE
:100B6000C1F30A52C1F3130141F480154FF0000B99
:100B7000D10702D100186D41521E0026044640F2F2
:100B8000FF11304601EB620A3746804602460020DC
:100B90004FF48011FFF758FE80197941331847EB65
:100BA0000102B4EB030C75EB020C04D3E41A65EB01
:100BB000020506460F46241908F101006D418046E2
:100BC0003428E3DDB11947EB0700091BA84103D224
:100BD0004FF0FF32134601E0002213461BEB0600E4
:100BE00047EB0A51BDE8F04DFFF7BEBE3A2800D2F0
:100BF000303820F02002412A01D3A2F13700884288
:100C000001D34FF0FF30704770B501EB020410F8CC
:100C1000015B15F0070301D110F8013B2A1106D141
:100C200010F8012B03E010F8016B01F8016B5B1E5B
:100C3000F9D12B0705D40023521E0FD401F8013B34
:100C4000FAE710F8013B02F10202A1EB030303E013
:100C500013F8015B01F8015B521EF9D5A142D6D30E
:100C6000002070BD70470029816802D041F0010169
:100C700001E021F0010181607047000030B50121E1
:100C800091B0084602F0F2FE0121480202F006FF90
:100C90002E4D284600F0A0FF2D4800902D4800243E
:100CA000CDE901044FF4C870CDE90304802005901C
:100CB0004000069080000790202008900002CDE9B7
:100CC00009046946284601F021F80121284600F070
:100CD00077FF01208DF830008DF831000B944FF430
:100CE0006020CDE90D041A4C02208DF83C004C3CEC
:100CF0000BA9204600F048F80523012209212046CF
:100D000000F066F8052302220F21204600F060F86B
:100D10000121204600F020F801212046FFF7A3FF23
:100D2000204600F08FF8204600F027F80028FAD17E
:100D3000204600F096F8204600F018F80028FAD176
:100D40000121204600F083F811B030BD08000240B8
:100D50004C240140CC1800200029816802D041F4C5
:100D6000807101E021F480718160704701460020AC
:100D70008968490700D5012070470146002089682D
:100D8000090700D50120704710B542680E4B0C7959
:100D90001A400B6842EA04221343436083680B4AFB
:100DA0001340D1E9024222434C7943EA44031A43F7
:100DB0008260C26A097C22F47002491EC9B242EA0A
:100DC0000151C16210BD0000FFFEF0FFFDF7F1FF11
:100DD00070B5072509290AD9C468A1F10A0606EBEE
:100DE0004606B540AC43B3401C43C46007E0046909
:100DF00001EB4106B540AC43B3401C4304611F23E3
:100E0000072A09D2446B521E02EB820293409C4394
:100E100091400C43446370BD0D2A09D2046BD21F6C
:100E200002EB820293409C4391400C43046370BDEB
:100E3000C46A0D3A02EB820293409C4391400C43FA
:100E4000C46270BD816841F008018160704700296B
:100E5000816802D041F4A00101E021F4A001816089
:100E60007047816841F0040181607047F0B5334CF0
:100E700085B0A089A18C884257D30026A68120780E
:100E800010B9208B000650D4012001F0DFFA07468C
:100E900002462BA1684604F051FD2C4D4FF496728A
:100EA000A989781A322802DDE88932380FE0C91B97
:100EB000322902DDE889323009E0C822062802DD45
:100EC000E889401F03E0062905DDE889401DE88127
:100ED000A284E68411E04FF47A72022802DDE889E8
:100EE000401E03E0022922DDE889401CE881A2843B
:100EF000E684208B012800D12670E889B0F5805F58
:100F000002D340F6FF70E8810021084600F0B6FDEC
:100F1000E989002000F0ACFD0121002000F0AEFDC9
:100F2000EA890BA1684604F009FD05B0F0BDE08C2C
:100F3000411CE1840228F3D92670F1E7C810002093
:100F400047657441442025342E3464005C18002029
:100F50006461632025342E3464000000FEE7000045
:100F6000F8B500251EA004F0D9FC69462E2002F039
:100F7000F1F8BDF8000042F2F2241E4EA04227D044
:100F8000012569462E2002F0E5F8BDF80000A042D8
:100F900007D019A004F0C2FC01F070FE642000F03C
:100FA000D3FE28466D1C0328EBDB4FF4FA60F0817A
:100FB00012A004F0B3FC69462E2002F0CBF8BDF875
:100FC0000000A04204D00EA004F0A8FC02F04EFBEA
:100FD00011A0F56304F0A2FC802002F0EFF8F8BD48
:100FE000436865636B696E6720636869702E2E2E97
:100FF00000000000C81000202E0000000A000000C1
:1010000053746172747570206368697020657272C0
:101010006F72210A0A0000000A53746172747570BD
:1010200020636869702073756363657373210A00B8
:1010300010B50DA004F072FC4AF6BB240F21224625
:10104000084602F0CDF8012000F07EFE0F21084690
:1010500001F006FEA04201D008A000E015A0BDE806
:10106000104004F05BBC0000436865636B696E6709
:10107000204C43442E2E2E0A000000004F70656E57
:10108000204C4344206572726F7221506C6561730D
:101090006520636865636B20776865746865722096
:1010A000746865204C43442020636F6E6E656374E2
:1010B000210A00004F70656E204C43442073756315
:1010C000636573730A0000002DE9F04301218FB0BE
:1010D000084602F0CBFC434EDFF80C81DFF80C91A0
:1010E0003068404502D108F1040005E0484502D1CE
:1010F0003E48001D00E03E483E4D0090686800F00C
:101100006BFDA86800F068FD00248020CDE9044054
:1011100003944FF44050CDE9084001940794102700
:10112000069402970A946946686800F0EFFD012270
:101130000A21686800F0E2FDE86800F029FD0294E9
:101140006946A86800F0E2FD01220A21A86800F0C3
:10115000D5FD286900F01CFD0021F80502F07EF99C
:101160004FF4A06002F070F93068404504D10E20C1
:101170008DF82C000F200BE0484505D111208DF88B
:101180002C008DF8307005E00C208DF82C000D201F
:101190008DF8300001258DF82D508DF82E508DF8EA
:1011A0002F500BA802F01EF98DF831508DF8324007
:1011B0008DF833500CA802F015F90F48411D057049
:1011C000A0F81842A0F80C41C0F8081100F2111163
:1011D000C0F814122902401D00F0D6F80FB0BDE887
:1011E000F0830000981200200038014000440040C5
:1011F00004480040EC2C0020D02A00202DE9F043C8
:101200009FB00546894604781C22584909A8FEF774
:10121000ABFF56491C221C3110A8FEF7A5FF53490D
:101220001C22383117A8FEF79FFF504801AF00F18C
:1012300054014EC94EC700F16401006F0EC90890F9
:1012400087E80E00142229464948FEF78DFF494ED3
:10125000494D4FF4003884B1484F012C14D0022C72
:1012600018D0032C21D0464E4FF48027042C27D0D1
:10127000052C2ED0062C37D044E00121052002F0A9
:101280000DFC0121404621E0012144F2050002F05D
:1012900005FC08E0012144F2090002F0FFFB0121F6
:1012A000042001F075F82F602CE00121212002F0CC
:1012B000F5FB0121404602F0E5FB012108201EE07C
:1012C0000121092002F0EAFB0121384602F0DAFB95
:1012D00017E00121112002F0E1FB0121384602F064
:1012E000D1FB012127480AE00121212002F0D6FB91
:1012F0000121384602F0C6FB22480121203001F0CE
:1013000047F82E6018208DF87B0001A81EA930F840
:101310001400ADF8780003208DF87A0010A850F87A
:10132000240000F0E3FF04208DF87B0005A81EA92F
:1013300030F81400ADF8780017A850F8240000F039
:10134000D5FF09AD494655F8240004F065FA55F873
:101350002400012104F01CFA55F824000122C021C8
:1013600004F04AFA1FB0BDE8F083000088C9010804
:10137000EC2C00200044004098120020003801406E
:10138000004800401000140070B506460D0016D04D
:101390000C4CA068406818B1206900F08FFC70B157
:1013A000206900F0F5FB0021A06800F009FCA068AE
:1013B000C6604560012100F003FC002070BD0120E3
:1013C00070BD0000EC2C002010B50F4C4FF4807164
:1013D00004F211102278012A0BD0022A08D1C4F895
:1013E0001402A4F81812601DFFF7CEFF0120207030
:1013F00010BD054A521DC4F80821A4F80C11FFF7CE
:10140000C3FF0220F3E70000D02A00202DE9F047B7
:1014100082460100DFF8EC82BB4DBC4EBC48BD4F9C
:1014200008D000F1440401297ED002297DD003298F
:101430000FD132E1C18A00290BD0C18A0429FBD027
:10144000C18A012906D0C18A022925D0C08A032871
:1014500048D004E100220121284602F019FF0021B2
:10146000284602F000FF00220121304602F010FF62
:101470000021304602F0F7FE00220121384602F03A
:1014800007FF0021384602F0EEFE082144464046A0
:1014900000F0B6FF042120E000220121284602F0DE
:1014A000F7FE0021284602F0DEFE00220121304630
:1014B00002F0EEFE0021304602F0D5FE00220121AE
:1014C000384602F0E5FE0021384602F0CCFE042149
:1014D0004446404600F094FF0821204600F08EFF6D
:1014E000022127E000220121284602F0D1FE00213E
:1014F000284602F0B8FE00220121304602F0C8FE64
:101500000021304602F0AFFE00220121384602F0F1
:10151000BFFE0021384602F0A6FE022144464046A6
:1015200000F06EFF042101E008E03BE0204600F0FF
:1015300065FF0821204600F061FF90E0C18A002984
:101540000ED0C18A04290BD08146C08A012808D058
:10155000B9F8160002280FD0B9F81600032816D0E3
:101560007DE000220121284602F092FE002128465B
:1015700002F079FE218831E000220121304602F09C
:1015800087FE0021304602F06EFE21883EE00022F8
:101590000121384602F07CFE0021384602F063FE4D
:1015A00021884DE0C18AE9B3C18A042957D0814618
:1015B000C08A012808D0B9F8160002281CD0B9F852
:1015C0001600032832D04AE000220121284602F00A
:1015D0005FFE0021284602F046FE6188A9F81A1035
:1015E000B9F81A0002F0D4FC01221146284602F094
:1015F0004FFE0121284630E000220121304602F052
:1016000047FE0021304602F02EFE6188A9F81C102A
:10161000B9F81C0002F00AFD01221146304602F022
:1016200037FE00E01BE00121304616E000220121D8
:10163000384602F02DFE0021384602F014FE618883
:10164000A9F81E10B9F81E0002F03EFD0122114655
:10165000384602F01DFE0121384602F004FE5FEA22
:101660000A604DD50021284602F0FDFD00213046DC
:1016700002F0F9FD0021384602F0F5FD082144464C
:10168000404600F0BBFE0421204600F0B7FE204695
:10169000BDE8F047022100F0B1BEC18A0029DED0CA
:1016A000C18A0429DBD08146C08A012812D0B9F84A
:1016B0001600022819D0B9F816000328CFD100224D
:1016C0000121384602F0E4FD0021384602F0CBFD4E
:1016D000A188B5E700220121284602F0D9FD0021AA
:1016E000284602F0C0FDA18878E70022012130469B
:1016F00002F0CEFD0021304602F0B5FDA18885E75D
:10170000BDE8F087001001400004004000080040E0
:10171000C8100020000C00402DE9F04F6A49044633
:1017200001F140080A68D8F80400DFF8A091ADB0D4
:1017300082423AD1782266490EA8FEF715FDB9F823
:1017400016104846A1F101018AB2B9F8181009062D
:1017500001D5042102E0018B01F07F01038C0DF122
:10176000380C03EB83030CEB8305438CB8F80C6057
:1017700055F8237005EB83033E80DB6BB8F80E60F1
:101780001E80028402EB82000CEB8000A9F822107C
:1017900050F8212012884AB100EB8100A8F80C20F3
:1017A000C06B0088A8F80E006DE008606068FEF766
:1017B0002DFF0022474BFEF795FEFEF7D3FFDFF823
:1017C00008A105460AF15C0ADAF80400FEF79FFF5B
:1017D0000746884640492846FEF72EFDFEF797FF4C
:1017E000DFF8F8B005460E4602460B460020594683
:1017F00005F040F93A464346FEF704FE00225B46F8
:10180000FEF700FEFEF76CFFA081DAF80800FEF795
:101810007EFF074688462A4633460020594605F093
:1018200029F93A464346FEF7EDFD00225B46FEF7F6
:10183000E9FDFEF755FF82B2E28129A101A804F07B
:101840007DF8A2892AA101A804F078F86068FEF763
:10185000DDFE00221F4BFEF745FEFEF783FFFEF77D
:1018600056FF02460B4626A101A804F067F8A2899C
:101870004FF4805141F2CF708A4200D3A081E289B7
:101880008A4200D3E0810021084600F0F7F8E189A0
:10189000002000F0EDF80121002000F0EFF8606872
:1018A0004FF47A7190FBF1F002B242F2F220009014
:1018B0004FF6FF735A21372001F0ECFB012189F824
:1018C00000102DB0BDE8F08F1C180020C8100020BB
:1018D0008CC8010800408F400000204100002440D7
:1018E000762D3E6461632025342E346400000000B0
:1018F000762D3E6164632025342E346400000000A0
:10190000762D3E7365742064626D2025332E336618
:1019100000000000044A01284FF00101104601D0E8
:1019200000F06CBD00F06CBD00100140054A0021C4
:1019300020B1022801D19182508270479182518258
:1019400070470000C81000202DE9F041294D2A4EB3
:101950002A4F2B4C04284AD2DFE800F0021325332B
:101960000021284602F07FFC0021304602F07BFC7B
:101970000021384602F077FC0821204600F03EFDA9
:101980000BE00021304602F06EFC0021384602F0E8
:101990006AFC0121284602F066FC0421204600F082
:1019A0002DFD02211EE00021284602F05CFC0021F2
:1019B000384602F058FC0121304602F054FC082160
:1019C000ECE70021284602F04EFC0021304602F0F0
:1019D0004AFC0121384602F046FC0821204600F06E
:1019E0000DFD04212046BDE8F04100F007BDBDE833
:1019F000F08100000004004000080040000C00409E
:101A000000100140044B01228240186809B11043C4
:101A100000E0904318607047007400401FB501213A
:101A2000042002F03BF80121480702F02BF83C208B
:101A30000090002001906946039000F005F8012114
:101A40000020FFF7DFFF1FBD30B5084C236840F6CC
:101A5000FE7282409343D1E900252A43D1E9025125
:101A60000D432A4382401A43226030BD0074004077
:101A7000014A104481607047007400400309054A20
:101A8000012098400029116801D0014300E0814302
:101A9000116070470474004010B5202000F01EF95A
:101AA000002804D0BDE81040202000F07DB810BD13
:101AB00010B54FF40074204600F010F900280DD046
:101AC00007A003F02BFF074A1178491C1170FFF79C
:101AD0007BFC2046BDE8104000F066B810BD000059
:101AE00031320000BE11002010B54FF400542046E2
:101AF00000F0F4F8002804D02046BDE8104000F0C3
:101B000053B810BD10B54FF40034204600F0E6F88D
:101B100000280DD007A003F001FF074A1178491CE7
:101B20001170FFF751FC2046BDE8104000F03CB8B2
:101B300010BD000031320000BE11002010B54FF47E
:101B40000014204600F0CAF800280DD007A003F0CA
:101B5000E5FE074A1178491C1170FFF735FC204655
:101B6000BDE8104000F020B810BD00003132000088
:101B7000BE11002010B54FF00074204600F0AEF802
:101B8000002804D02046BDE8104000F00DB810BD7C
:101B9000C10002D502490860704702494860704799
:101BA0000404024000000240C10002D5024908605E
:101BB0007047024948607047040402400000024038
:101BC0000029016802D041F0010102E04FF6FE72E7
:101BD000114001607047000001684FF6FE7211402D
:101BE00001600021016041608160C1603149314A7A
:101BF0000839904203D1486840F00F0006E02D4AB2
:101C00001432904204D1486840F0F00048607047B8
:101C1000284A2832904203D1486840F47060F5E7C2
:101C2000244A3C32904203D1486840F47040EDE7CA
:101C3000204A5032904203D1486840F47020E5E7D2
:101C40001C4A6432904203D1486840F47000DDE7DA
:101C5000184A7832904203D1486840F07060D5E766
:101C6000154A111F904203D1086840F00F0006E0AA
:101C7000114A1432904204D1086840F0F000086024
:101C800070470D4A2832904203D1086840F47060D2
:101C9000F5E7094A3C32904203D1086840F47040AD
:101CA000EDE7054A50329042EAD1086840F47020CE
:101CB000E5E7000008000240080402400146002059
:101CC000CA0001D5034A00E0034A12680A4200D064
:101CD000012070470004024000000240014600203D
:101CE000CA0001D5034A00E0034A12680A4200D044
:101CF000012070470004024000000240002A0268F0
:101D000001D00A4300E08A430260704730B503689F
:101D100047F6F07293430C6A8A682243D1E904457E
:101D20002C4322438C692243CC6922434C6A2243D0
:101D30008C6A22431A430260CA6842600A68826061
:101D40004968C16030BD7047024948804888002812
:101D5000FCD17047B81000202DE9F04104460D4633
:101D60001646104604F092FD0746304604F0C4FDC6
:101D70000646E41E0C230322A9B2A0B204F0B0FB75
:101D8000384604F083FD3046BDE8F04104F0B4BDB0
:101D900010B5022000F052F8002807D0012004F00E
:101DA000F9FBBDE81040022000F042B810BD10B5AC
:101DB000042000F043F8002807D0022004F0EAFBDA
:101DC000BDE81040042000F033B810BD10B5082065
:101DD00000F034F8002807D0032004F0DBFBBDE856
:101DE0001040082000F024B810BD10B5202000F0ED
:101DF00025F828B1052004F0CDFB202000F018F8CC
:101E0000802000F01BF828B1072004F0C3FB8020DD
:101E100000F00EF8402000F011F8002807D006204E
:101E200004F0B8FBBDE81040402000F001B810BD40
:101E3000014908607047000014040140064A014649
:101E400000201268044B0A4014331B680B4202D076
:101E5000002A00D001207047000401400149C860F9
:101E6000704700000020024070B554223B493C48B6
:101E700001F06EFE394C3B49206888422BD03A482D
:101E80006060A0600020E06020616061A061E061AE
:101E90000146302220626318491C83F82420182947
:101EA000F9D304F83C0F012121716171A071E17136
:101EB000A06042F2F220A081F320E081392020824C
:101EC00040F21E50608240F2D250A08240F20E607A
:101ED000E082A4F13C0425A003F020FD2AA003F039
:101EE0001DFD1E4935A0243103F018FDA068FEF742
:101EF000C4FB05466068FEF7C0FB01462A4631A0D8
:101F000003F00CFD34A003F009FD94F8400008B183
:101F100037A100E037A138A003F000FD94F841009C
:101F200008B133A100E033A137A003F0F7FC94F827
:101F3000420008B12EA100E02EA137A003F0EEFC74
:101F400094F8430008B12AA100E02AA136A003F0CA
:101F5000E5FCBDE870400CA003F0E0BC7818002060
:101F600000F80308DDCCBBAA000096434C6F616407
:101F700020636F6E6669672066726F6D20464C4104
:101F800053480D0A000000002D2D2D2D2D2D2D2D37
:101F90002D2D2D2D2D2D2D2D2D2D2D2D2D2D2D2D71
:101FA0002D2D2D2D2D2D2D2D2D2D2D2D2D2D2D2D61
:101FB0002D2D2D2D2D2D2D2D0A000000534E3A25AF
:101FC000730A00004F75743A25342E346409496E43
:101FD0003A25342E34640A0050726F64756374209D
:101FE000436F6E66696775726174696F6E0A00008F
:101FF0004F6E00004F666600202020207C36353072
:10200000097C257309000000202020207C31333119
:1020100030097C25730A0000202020207C313439CF
:1020200030097C2573090000202020207C313535C3
:1020300030097C25730A000070B505464FF4302640
:10204000304600F063F8042811D1094C206940F0B3
:10205000020020616561206940F040002061304647
:1020600000F054F8216941F6FD721140216170BD04
:102070000020024008490420CA68D20701D001208C
:102080007047CA68520701D502207047C968C9065F
:10209000FBD5032070470000002002400248016980
:1020A00041F0800101617047002002402DE9F041BC
:1020B00005464FF400570E46384600F027F804282E
:1020C00014D10B4C206940F0010020612E80B846ED
:1020D000384600F01BF8BF1E042804D1300C68807D
:1020E000404600F013F8216939402161BDE8F081D4
:1020F00000200240034802494160034941607047A3
:102100002301674500200240AB89EFCD00B50346AF
:10211000FFF7B0FF03E000BFFFF7ACFF5B1E012835
:1021200003D0002B00D1052000BD002BF4D1FAE72D
:102130004FF0204202EB80000029016802D041F0FC
:10214000010101E0014A114001607047FEFF0F00EC
:1021500030B5D0E901121143D0E903231A431143EA
:1021600042690368114382691143C2691143026ADB
:102170001143426A1143826A1143C26A1143026BDE
:1021800011434FF0204242F823108168082906D1FC
:10219000016802EB81010B6843F040030B60416B67
:1021A000D1E9003443EA04138C68CD68240244EA80
:1021B000054423430C6943EA04534C69896943EAA3
:1021C00004630B43016802EB81014B60C16AB1F506
:1021D000804F07D000686FF0704102EB8000C0F8BC
:1021E000041130BD816B0068D1E9003443EA041367
:1021F0008C680D69240244EA055423434C698969BB
:1022000043EA046302EB80000B43C0F8043130BDA5
:102210002DE9F84301210C2001F040FC0220ADF82B
:10222000000003248DF8024004202D4F8DF8030098
:102230006946384600F05AF84020ADF80000DFF853
:10224000A48010258DF803506946404600F04EF8F2
:102250004021404600F0D4F80121042001F01EFC8A
:102260008DF8024048268DF80360EC20ADF80000A0
:102270006946384600F03AF80121102001F00EFCC2
:102280008DF802400F20ADF800008DF80350164D78
:102290006946284600F02AF80821284600F0B0F8E0
:1022A0000421284600F0AAF80221284600F0A6F8EA
:1022B0000121284600F0A2F80121082001F0EEFBE0
:1022C000A814ADF800008DF802408DF8036069464F
:1022D000404600F00BF800F061FBBDE8F883000019
:1022E00000080140000C0140001001402DE9F041C0
:1022F000CB78002503F00F02DB0601D58B781A435B
:102300000B884FF00F0813F0FF0F4FF0010C1CD09B
:10231000D0F800400E880CFA05F31E409E4210D102
:10232000AF0008FA07F624EA060602FA07F4344377
:10233000CE78282E02D0482E02D002E0436100E081
:1023400003616D1C082DE5D304600B88FF2B1DD99C
:102350004468002505F108060CFA06F30E881E40B5
:102360009E420FD1AF0008FA07F624EA060602FAE9
:1023700007F43443CE78282E00D14361CE78482E1E
:1023800000D103616D1C082DE4D34460BDE8F081E9
:10239000F0B5144C002801DAE36900E06368420DEF
:1023A000120185B2C0F301579540C0F30346032FD5
:1023B00005D0C2020AD50322B240934307E023F0BE
:1023C0007062636823F07063636002E0AB4343F0C4
:1023D000706201B12A43002801DAE261F0BD626057
:1023E000F0BD000000000140806880B270470246E6
:1023F000002092680A4200D0012070474161704776
:10240000016170472DE9F8430446DDF820700D4660
:10241000164699464FF49C7816F8012B4B462946F0
:102420002046009701F0FAFA444502D20834A4B2DB
:1024300007E0E02D4FF0000402D21035ADB200E00D
:10244000002530780028E7D1BDE8F88370B5002179
:1024500018B1012800D1012100200F4B4FF4C8749E
:1024600003F57A6233F8115022F81050401C891C91
:10247000A142F7D30020014632F81130491C18441C
:10248000C829F9D3FEF7BDF80449FDF7D5FEFEF7DC
:10249000F4F880B270BD0000CC1800200000484362
:1024A00010B50C4C2089642812D900202081FFF738
:1024B000CDFFFEF7A6F8FEF72AF9074A074BFDF70E
:1024C000A1FF074A074BFDF7F7FEFEF74BF9A063A4
:1024D000A06B10BDC810002045B0329978A7653FA9
:1024E000A4703D0AD7A3E83FFEE700002DE9F74FAF
:1024F000ADF51E7D4FF4A072A6496846FDF734FE87
:102500005022A54950A8FDF72FFEA3495022503173
:1025100064A8FDF729FEA0495022A03179A8FDF753
:1025200023FE9D4B0E24F0334FF000080FCB814665
:102530008A462546464644F2FF20CDE98F2304F023
:10254000ADF900B29A904FF4784004F0D5F900B29A
:102550004DF2BA679790384604F098F900B2989017
:10256000384604F083F900B200270DF5A07B99905E
:102570005BF82710684600EB0110C1688BB28168D8
:102580008AB24168006889B280B203F0A9FF64A8EA
:102590005BF8271050F82720684600EB01104FF633
:1025A000FF7341680068891D801C89B280B204F005
:1025B0002BF97F1C142FDBDB90981FFA8AF183B272
:1025C0008F9882B21FFA89F003F08AFF4021734886
:1025D00000F06AF90028F9D15FF0010701F0DCF999
:1025E00001F0CEFE80216D4800F05EF928B1012790
:1025F000042C1DDD2546641F1AE04021674800F0C9
:1026000053F910B10127B84612E02021634800F0C9
:102610004BF918B101272546641E09E008215F48DF
:1026200000F042F920B101270F2C01DA2546641D84
:1026300004215A4800F038F910B12546641C01E025
:10264000002FCBD0002C01DA002402E0132C00DD97
:10265000132444F2FF2004F021F95BF825106846AA
:1026600000EB011064AF41680068891D801C57F8B9
:10267000252089B280B24FF6FF7304F0C5F84FF4FD
:10268000784004F00BF95BF82410684600EB011069
:1026900057F8242041680068891D801C89B280B2E7
:1026A0004FF6FF7304F0B0F8B8F1000F6ED09F99A9
:1026B000701C884203D25BF8240009280CD95BF80F
:1026C00024000B2808D00F2806D00E2811D010287F
:1026D0002ED011282ED014E079A850F824000178CB
:1026E0009E9881559E990020314406F1010648705C
:1026F00007E09E9900203144761E01F8010C00D5B8
:10270000002690981FFA8AF183B28F9882B21FFA3E
:1027100089F003F0E5FE192E2DDB9E9882190AF14F
:10272000010081B2183A09F1010080B218232BE0B0
:10273000002400E00124194D4021284600F0B4F89F
:102740000028F9D17823AA221946452003F0C8FEB3
:102750009A9804F0A3F8979804F0CEF8989804F0AB
:1027600095F8999804F082F8A09806600DF5217DFF
:102770002046BDE8F08F0AF1010081B209F10100A5
:1027800080B24FF6FF739E9A04F03EF80027B846D9
:1027900024E70000F8CB010838CD0108000801400B
:1027A00070B5194C606B01281FD100206063214671
:1027B0002279096B32B1012A09D0022A0CD0032AEE
:1027C00012D10EE0114881420FD101200CE011F529
:1027D000FA5F09D1022007E00D4A914204D103209B
:1027E00002E011F57A6F01D0207170BD2071A578DB
:1027F000A070A078FFF78EF801F02CFEA570BDE860
:10280000704000F031B90000C8100020D8DCFFFF94
:10281000A8E4FFFF2DE9F0410746164C0E4651EAA9
:1028200007004FF0000512D0E068B84209D1E088F7
:10283000B04206D13846FFF7DAFD002813D0E56034
:10284000E58031463846FFF7D2FD18B10AE0E56071
:10285000E5800CE02820FFF777FA31463846FFF78D
:10286000C6FD10B10020BDE8F081E760E6800120E0
:10287000F9E70000B81000202DE9F04106460F46A8
:1028800000244FF4FA7506E00A20FFF75DFA0A34D7
:10289000A4B2AC4205D239463046FFF7A8FD002865
:1028A000F2D020B2BDE8F08170B506460D46FFF7C4
:1028B0009EFD00BB3C20FFF747FA29463046FFF754
:1028C00096FDC0B9124CA068B0421BD1A088A842A6
:1028D00018D12078012810D05FF0B400FFF734FA47
:1028E0000220207029463046FFF781FD40B10020CC
:1028F000A060A0802070002070BD4FF4F070EDE764
:10290000022070BDA660A5800120207070BD00006F
:10291000B8100020104608B540F231120B2818D22A
:10292000DFE800F00E170E1710170E0C0A0806004D
:10293000084808E0084806E0084804E0084802E0C3
:10294000084800E0084800903A230F21FA2000F0E0
:1029500009F908BD64F20008A4050108E41801089B
:10296000242C0108643F0108A452010810B5044654
:102970000021EF2340F23F12084600F007FC4FF021
:10298000D8412C200880044900204FF496320C8056
:10299000401C9042FBD310BD0000026C10B500F04B
:1029A00005F8BDE8104000F029B90000F8B5012194
:1029B000080201F05BF8012140F2E11001F06EF82D
:1029C0004CF63370ADF8000003248DF80240182057
:1029D000224E8DF8030069463046FFF787FC4FF61C
:1029E0008070ADF8000069461D48FFF77FFC0121AB
:1029F000082001F053F8B014ADF800008DF8024043
:102A00004820184F8DF8030069463846FFF76EFCE2
:102A10000121082001F042F84FF40040ADF8000019
:102A20008DF8024010258DF8035069463846FFF7AF
:102A30005DFC0121202001F031F88020ADF800007C
:102A40008DF802408DF8035069463046FFF74EFC82
:102A500080213046FFF7D4FCF8BD0000001401408F
:102A600000180140000C01402DE9F84342F2F22524
:102A70002846FFF77BFF3748009093234FF48C7272
:102A80005B21262000F06EF84FF4FA60FFF75CF946
:102A90000021F0234FF4A0720846009503F004FDD6
:102AA0002D4C0120E0822D4E4FF0020896F8410097
:102AB00030B996F8420008B1404600E00320E082B9
:102AC000E08AC0B2FEF740FF00954FF6E079E28A57
:102AD0004B46C821AA2000F0D5FB0027278300958C
:102AE000228B4B46C8210F2000F0ACF91B491C4833
:102AF0005C390860403108604860184840215C3803
:102B0000FDF74BFB15481C38FEF706FEA4F81280B3
:102B1000608AC0B2FEF70AFF628A0C21782000F0BA
:102B200073FB677096F84000012804D162780F218A
:102B3000092000F019FB4FF6FF70208100F09AFC8D
:102B400001F0FCFBBDE8F843062200210846FFF730
:102B5000E1BE0000F0750008C810002078180020C1
:102B6000F0D8FFFF2DE9F04FADF2045D80468946B5
:102B70004FF4207417469A4621466846FDF70DFB30
:102B80002146A0A8FDF709FBA7EB0800401C86B270
:102B90004D460DF5207B2BE0DDF828057200A5EBF6
:102BA000090102FB01016846FDF7DEFA00206A46D2
:102BB00059460AE002EB400312F810405B7803EB41
:102BC000042321F81030401C80B2B042F2D34446B6
:102BD0000AE000BFA4EB080120463BF8112029467B
:102BE00000F0FEFA641CA4B2BC42F3D96D1CADB275
:102BF0005545D1D90DF2045DBDE8F08F30B597B0E1
:102C000005200024CDE90F04CDE911041494062019
:102C10001594CDE900041020CDE9024013940494EA
:102C20000002CDE90840069407940A940FAD05947C
:102C300068460B94CDE90C45FFF78AFA0120CDE9EF
:102C40000F04CDE911041394149468460E9515945D
:102C5000FFF77EFA01210620FFF76AFA17B030BDB0
:102C600010B50B46024600F091FA4FF0D8412E20E5
:102C700008800148008810BD0000026C70B500F0AB
:102C80009FFFFF2000F09AFA4FF0D845E2202880FD
:102C90006B4C232020800220208054202080E020C4
:102CA0002880012020800A2003F0DEFBE02028801D
:102CB000032020800A2003F0D7FB012028800A206F
:102CC00003F0D2FBE620288000202080DD20208039
:102CD000DC202080B0202880202020800020208040
:102CE000012020803F20208000202080EF202080B5
:102CF00000202080B4202880012020804FF4CD7057
:102D0000208000202080462020801320208000206A
:102D1000208020802080B62028800120208040F262
:102D200001102080002020800D20208001202080A4
:102D3000002020802080F020288003202080052093
:102D400003F092FBB82028800F20208001202080F3
:102D5000014600F011FF0121022000F00DFF0121CA
:102D6000042000F009FF0121082000F005FF0021E8
:102D7000082000F001FF012003F076FB012108206C
:102D800000F0FAFE0721002000F066FF002101207C
:102D900000F062FF0321022000F05EFFCC2103203F
:102DA00000F05AFF4621042000F056FF0D210520B7
:102DB00000F052FF0021062000F04EFF0021072006
:102DC00000F04AFF0821084600F046FF4021092094
:102DD00000F042FF88210A2000F03EFF88210B20EE
:102DE00000F03AFF30210C2000F036FF20210D20AA
:102DF00000F032FF6A210E2000F02EFFA4210F20E8
:102E000000F02AFF0421102000F026FF24211120C9
:102E100000F022FF2421122000F01EFF00211E20BE
:102E200000F01AFF0021202000F016FF2920288042
:102E3000002000F0C3F9BDE8704000F023BF00009F
:102E40000000026C2DE9FF4F00F12F0B85B0044606
:102E50003F301FFA80FA04F14F000490069F129E43
:102E600080B21D461FFA8BF903901D3752B104F151
:102E70005F0080B20490012A4CD0022A74D0032A49
:102E800047D1B9E02046009410E0069807E00146DB
:102E90003246009800F0A4F908F1010080B28046A3
:102EA000B842F4D30098401C80B200905845ECD34F
:102EB0004FF01D08CDF80080CDE901560223684A85
:102EC0004846069900F036FFCDF80080CDE901565E
:102ED0000223644A5046069900F02CFF04981FFA1A
:102EE00080FB04F16F00009010E0069807E00146B7
:102EF0003246584600F074F908F1010080B280466D
:102F0000B842F4D30BF101001FFA80FB00998B4506
:102F1000EBD369E04FF01D08CDF80080CDE90156F4
:102F20000223514A2046069900F004FFCDF80080A4
:102F3000CDE9015604F10F0002234C4A80B20699F4
:102F400000F0F8FECDF80080CDE9015604F11F0035
:102F50000223474A80B2069900F0ECFE0223454A5C
:102F6000CDF800801CE0FFE7009410E0069807E031
:102F700001463246009800F033F908F1010080B2B2
:102F80008046B842F4D30098401C80B2009000996B
:102F90005945EBD34FF01D08374A0223CDF8008086
:102FA000CDE901564846069900F0C4FECDF80080F0
:102FB000CDE901560223314A5046069900F0BAFE87
:102FC000CDF80080CDE9015602232D4A06990398D9
:102FD00000F0B0FECDF80080CDE901560223294A69
:102FE0000699049800F0A6FE27480088000634D50C
:102FF000A04604F1820B15E04FF01D0802231C4A85
:10300000CDF80080CCE7069C06E0324621464046DB
:1030100000F0E6F8641CA4B2BC42F6D308F101004B
:103020001FFA80F8D845EED31D248DE870000223E6
:10303000164A4846069900F07DFE8DE8700002238E
:10304000134A5046069900F075FE8DE87000022381
:103050000F4A0699039800F06DFE09B0BDE8F08FA5
:10306000400D00207A0D0020A0090020E40B002074
:10307000140A0020360B0020DA090020920C0020F0
:103080001E0C0020580C0020E0100020B40D002081
:10309000EE0D00202DE9F04F8DB004468846154610
:1030A0001E462822284903A8169FFDF75DF84FF019
:1030B000380A002D0BDACDF800A00423234A41463C
:1030C0002046CDE9016700F035FE684205B2642074
:1030D00095FBF0F100FB11554FF00A0B95FBFBF946
:1030E00009F0FF0003A9CDF800A0CDE9016751F870
:1030F000202004F120000423414680B200F01AFE93
:103100000BFB1950C0B203A9CDF800A0CDE90167AF
:1031100051F8202004F13E000423414680B200F023
:1031200009FE0B48009008F12D0083B204F1A000C5
:1031300082B208F10D0081B26234A0B2FFF712FD35
:103140000DB0BDE8F08F000034CA01080000002077
:1031500026E200084FF0D84210800248008808801C
:10316000012070470000026C08B542B1054800908C
:103170003A2346220F210920FFF7F4FC08BD02483C
:10318000F5E70000347B0108E465010870B54FF0F5
:10319000D8452A242C80084C060A26802080100A54
:1031A000208022802B202880080A20802180180A75
:1031B0002080238070BD00000000026C4FF0D842D8
:1031C000BE21118005490E220A8008800120088056
:1031D0000020088008800880704700000000026C12
:1031E00010B51446B0F5A07F0BD8F02909D80B46CE
:1031F0000246FFF7CBFF4FF0D8412C200880014852
:10320000048010BD0000026C38B5B0F5A07F19D85D
:10321000F02917D842F2F2244FF4FC63062A11D2A7
:10322000DFE802F00305081114170C4803E00CA2B4
:10323000009410E00C4800903A23C9220F217D2011
:10324000FFF790FC38BD09A2009404E009A20094A5
:1032500001E00AA20094FFF7D5F838BDFCAA0108E6
:10326000542D354D696E200084900108542D313560
:103270004D696E00542D33304D696E00542D36303B
:103280004D696E002DE9F04F91B005468B4614460E
:103290001F4628222C4903A8DDF86880FCF764FF4C
:1032A000294B0DAE2833002C0FCB0FC648D00DA8EC
:1032B0004FF01D0950F8240000244FF00A0A00883E
:1032C000B0FBFAF60AFB160180B1CDF80090CDE90B
:1032D000017803A8022350F82120604205EB00107A
:1032E000303080B2594600F025FD10E042F2F22065
:1032F0000090604205EB001000F140018AB20BF132
:103300001D0130308BB280B2594603F0CDF8641CF9
:10331000E4B23046042CD3D34C468DE8900105F13D
:1033200040000223094A594680B200F003FD8DE8AF
:10333000900150350223064A5946A8B200F0FAFC23
:1033400011B0BDE8F08F0000FCC90108CC0C0020D2
:10335000060D0020FEE7704738B500214FF00060F1
:1033600000F07CF84FF4A06000F06EF81C208DF89F
:10337000000000258DF801508DF8025001248DF8D1
:103380000340684600F02EF81D208DF800008DF8EF
:1033900001408DF802508DF80340684600F022F895
:1033A0001E208DF800008DF801408DF8034068461E
:1033B00000F018F832208DF800008DF801408DF8EB
:1033C0000340684600F00EF836208DF800008DF8B6
:1033D00001508DF802408DF80340684600F002F875
:1033E00038BD000070B50F21C478027801234FF07A
:1033F000E026DCB1124C246804F4E064C4F5E06417
:10340000250AC5F10404E9404578A54084780C40BC
:103410002C4321010B4C1155007800F01F018B400B
:10342000400906EB8000C0F8003170BD02F01F00BB
:103430008340500906EB8000C0F8803170BD000069
:103440000CED00E000E400E0024908430249086096
:10345000704700000000FA050CED00E0024A114040
:10346000014302480160704780FFFF1F08ED00E044
:10347000704700002DE9F04F604893B006240189A1
:1034800064297DD94FF000098046A0F8089048468D
:10349000FEF7DCFF0090FDF7ABF8FDF738F90646C4
:1034A0000F46574A574BFCF7ADFF574A574BFCF7AF
:1034B00003FFFDF757F90546C8F83800544A554B45
:1034C00030463946FCF79EFF06460F462846FDF774
:1034D0001EF982468B465B4652464FA104A8CDE9B1
:1034E000026702F02BFA514F4FF48076314638468E
:1034F000FEF77DFF30B131463846FEF778FF0128F0
:1035000044D044E04A48854201DD00243FE0494878
:10351000854201DD02243AE04748854237DC4748CE
:10352000854201DB072432E04548854201DD08245D
:103530002DE04448854201DB092428E042488542C9
:1035400001DD0A2423E000210B240A220846FFF7AC
:10355000E1F900260025B7B24FF47842A9B2384607
:1035600003F04CF96D1CF02DF6DB761CB6F5A07F50
:10357000F0DB4FF4FA60FEF7E7FB40F24C4100E06D
:1035800039E0A8F8061000F0FBFE00E00424B8F8CB
:1035900028004546A0420DD16879411C6971022876
:1035A00008D3688D84420BD8211A11F1020F07DD70
:1035B000844205D0688D042802D008B102280DD1BC
:1035C0006C850021224685F805900846FFF7A2F990
:1035D00052465B461DA104A802F0B0F9288DA04216
:1035E00001D085F8059000946B8D6A791BA104A821
:1035F00002F0A4F92C8513B0BDE8F08FC8100020AC
:1036000045B0329978A7653FA4703D0AD7A3E83F3B
:1036100005C078060DFD433F6265747465723A25F6
:10362000302E336620256420256600000008014006
:1036300000004041666636413333F340CDCCEC4068
:103640003333E340CDCCDC406666D64062657474AB
:1036500065723A25302E3366000000007374617481
:10366000652025642025642025642D0000B54FF0D9
:10367000D84087B0002101807C49CA89B2F57A7FA1
:103680007DD30022CA81B921018079480188ADF833
:1036900008100088ADF80C0002A90C20FFF75AFDB5
:1036A00003A90F20FFF756FD04A93A20FFF752FDAA
:1036B00005A9A820FFF74EFD02A9E820FFF74AFD63
:1036C00003A9E920FFF746FD04A9FF20FFF742FD0B
:1036D00002A90A20FFF73EFD03A90B20FFF73AFDE0
:1036E00003A90D20FFF736FD03A90E20FFF732FDD9
:1036F000BDF81410BDF81000CDE90001BDF80C3084
:10370000BDF808205BA16B4802F018F902A92E2031
:10371000FFF720FD03A93E20FFF71CFD04A9A1200F
:10372000FFF718FD05A9B120FFF714FDBDF814102F
:10373000BDF81000CDE90001BDF80C30BDF808203F
:103740005DA15C4802F0FAF802A9B520FFF702FD7E
:1037500003A9B720FFF7FEFCBDF80C30BDF8082028
:1037600063A1544802F0EAF802A9B920FFF7F2FC7D
:1037700003A9BB20FFF7EEFCBDF80C3000E072E0BF
:10378000BDF808205EA14B4802F0D8F802A9BD2080
:10379000FFF7E0FC03A9BF20FFF7DCFCBDF80C300D
:1037A000BDF808205CA1434802F0C8F802A9C12076
:1037B000FFF7D0FC03A9C320FFF7CCFC04A9C52068
:1037C000FFF7C8FC05A9C720FFF7C4FCBDF814101B
:1037D000BDF81000CDE90001BDF80C30BDF808209F
:1037E00051A1344802F0AAF802A9C920FFF7B2FC9F
:1037F00003A9CB20FFF7AEFC04A9CD20FFF7AAFC5C
:1038000005A9CF20FFF7A6FCBDF81410BDF81000E5
:10381000CDE90001BDF80C30BDF8082049A12548CC
:1038200002F08CF802A9D120FFF794FC03A9D32061
:10383000FFF790FC04A9D520FFF78CFCBDF8100021
:103840000090BDF80C30BDF8082045A1194802F0E1
:1038500075F802A90E20FFF77DFCBDF8082049A1EC
:10386000144802F06BF807B000BD0000C81000203B
:103870000000026C506F776572204D6F64652025E3
:10388000780941646472657373204D6F6465202507
:103890007809446973706C6179204D6F64652025E7
:1038A0007809456666656374207374617475732066
:1038B00025780A00D41700204D656D20737461725D
:1038C00074202578094D656D206175746F20257809
:1038D0000944444220737461727420257809506150
:1038E0006E656C206D6F64652025780A000000000D
:1038F000486F72202578095665722025780A0000E5
:103900004750494F20436F6E6620257809537461F4
:103910007475732025780A00506F73742025780918
:1039200050574D2025780A004C43442047454E5BB4
:10393000302D335D202578202578202578202578A6
:103940000A0000004750494F5B302D335D20524F35
:10395000502025782025782025782025780A000019
:1039600044424320636F6E6620486973746F207011
:10397000747220546872657320257820257820257C
:10398000780A000054656172696E6720737461740F
:10399000652025780A0000000B4810B5018A6429CB
:1039A00010D3418971B90021018200F0F9F848B1C2
:1039B00006A001F0B3FFFFF761F98020FFF7FEFBDF
:1039C000012010BD002010BDC81000205265737486
:1039D000617274204C43440A0000000010B50C4C86
:1039E000608A002813D0022811D1A08A41F2707198
:1039F00088420CD380210748FEF700FD0A20FEF71D
:103A0000A3F940210448FEF7F9FC0020608210BDB4
:103A1000C810002000140140000C01402DE9FF5F98
:103A2000804689469B4600254FEA0D0A00241AF875
:103A3000056009EB050700BFC4F1070026FA00F096
:103A4000C00708EB0400B9B280B201D05A4600E0CA
:103A50000E9AFFF7C5FB641CA4B2082CECD36D1CB6
:103A6000ADB2102DE2D3BDE8FF9F0000044A00294B
:103A7000516901D0014300E081435161704700006A
:103A800000100240044A0029D16901D0014300E03E
:103A90008143D1617047000000100240044A0029B0
:103AA000916901D0014300E08143916170470000BA
:103AB00000100240224910B54A6812F00C03214A56
:103AC00003D0042B01D0082B26D002604A681E4B7D
:103AD00002F0F00212099C5C0268E24042604C680D
:103AE00004F4E064240A1C5D22FA04F484604C6847
:103AF00004F460544FEAD4241B5D22FA03F2C2603E
:103B00004968114B01F440414FEA91311B1F595C48
:103B1000B2FBF1F1016110BD4A684B6802F470120A
:103B20004FF0020413F4803F04EB924202D04B6842
:103B30009B0301D5054B00E0024B5A43C5E700004B
:103B40000010024000127A00A012002000093D007F
:103B500070B504460D461646FEF7CCFA3520FEF742
:103B60007DF9A01901E002CC02C58442FBD3BDE877
:103B70007040FEF793BA0000074A137809B1034377
:103B800000E083434FF0D8411370BA200880034906
:103B90001078088070470000B01200200000026C0E
:103BA0004FF0D841B9200880044801880088C9B284
:103BB0000F2901D001207047002070470000026CDF
:103BC00070B5164C80212046FEF71AFC4FF4FA65BA
:103BD000284602F049FC80212046FEF70FFC2846CB
:103BE00002F042FC0E4D4FF4004421462846FEF7F9
:103BF00007FC4FF47A76304602F036FC2146284620
:103C0000FEF7FCFB304602F02FFC21462846FEF76B
:103C1000F7FB3046BDE8704002F026BC00140140BE
:103C2000000C014070B504460025200601D5012195
:103C300000E000210420FFF79FFF00210220FFF792
:103C40009BFF01210220FFF797FF60066D1C040E09
:103C5000EDB2082DE9D370BD70B504460D460021C4
:103C60000120FFF789FF45EA84240020FFF7DAFFEF
:103C7000E0B2FFF7D7FFBDE8704001210846FFF72B
:103C80007BBF00004FF0D841B820088002480F21C8
:103C900001800121018070470000026C7047000024
:103CA00022480021026842F4803202604FF4A0638F
:103CB000026801F1010112F4003F01D19942F7D1EC
:103CC0000168890330D51A490A6842F010020A6077
:103CD0000A6822F003020A600A6842F002020A60DF
:103CE0004168416041684160416841F480614160E0
:103CF000416821F47C114160416841F4E811416060
:103D0000016841F08071016001688901FCD541685A
:103D100021F003014160416841F0020141604168C6
:103D2000C1F381010229FAD170470000001002405E
:103D3000002002402DE9FF5F8A460E98994608440C
:103D40000D46A0F1010B26E0002620E00299A5EB2C
:103D50000A0000FB09F031440024475C009800EBA6
:103D6000C60800BFC4F1070027FA00F0C00708EB3F
:103D7000040080B201D00F9A00E0109A2946FFF7A4
:103D80002FFA641CA4B2082CECD3761CB6B24E45B4
:103D9000DCD36D1CADB2AB45D6DCBDE8FF9F4FF068
:103DA000E0210428086903D020F00400086170476E
:103DB00040F00400FAE74FF0E0210028086902D043
:103DC00040F0020001E020F00200086170470000AE
:103DD0000F4810B5016841F00101016041680D4ACA
:103DE0001140416001680C4A11400160016821F4F2
:103DF00080210160416821F4FE0141604FF41F0100
:103E00008160FFF74DFF05494FF00060086010BD6D
:103E1000001002400000FFF8FFFFF6FE08ED00E092
:103E20002DE9F0414FF080480121404600F025FA8D
:103E300000284ED0284C2078284F002600284FF02C
:103E4000020138460BD0FEF7D2FA01462448012978
:103E50000CD006802348007802280BD01FE0FEF724
:103E6000C6FA0028F6D101202070F3E70188491C2A
:103E70000180EFE71C4D2878401C28702878052821
:103E80000DD31A4C2078F0B1002020702078FDF777
:103E900041FD22780F210920FFF766F92E702021BD
:103EA0003846FEF7A4FA124978B10E70114800881E
:103EB00018B111490888401C08804046BDE8F0410F
:103EC000012100F0CDB90120DFE70878401C08701F
:103ED000ECE7BDE8F0810000B511002000080140CA
:103EE000CE100020CA100020B4110020C9100020FC
:103EF000CB100020DA100020DC1000203EB501219C
:103F00000846FFF7BFFD4FF4E150ADF8040040F262
:103F1000E730ADF800000020ADF80600ADF8020073
:103F20004FF080446946204600F0BAF9012120464E
:103F300000F096F901221146204600F0A9F901216E
:103F4000204600F090F93EBD70B50E4D0121284687
:103F500000F093F9002814D00B4C21780B4800296D
:103F60004FF0080103D0FEF749FA002002E0FEF707
:103F700047FA012020702846BDE87040012100F07A
:103F80006FB970BD00040040BF1100200010014057
:103F90003EB5044601210220FFF774FD40F2E730F0
:103FA000ADF80000ADF8044000200D4CADF806005F
:103FB000ADF802006946204600F072F90121204662
:103FC00000F04EF901221146204600F061F901216E
:103FD000204600F048F90021204600F044F93EBD9B
:103FE0000004004070B50E4D0121284600F045F94F
:103FF000002814D00B4C21780B4800294FF0040105
:1040000003D0FEF7FBF9002002E0FEF7F9F90120EA
:1040100020702846BDE87040012100F021B970BD34
:1040200000080040C0110020001001403EB50446C9
:1040300001210420FFF726FD40F2E730ADF8000033
:10404000ADF8044000200D4CADF80600ADF80200BC
:104050006946204600F024F90121204600F000F9CD
:1040600001221146204600F013F90121204600F0FC
:10407000FAF80021204600F0F6F83EBD00080040A6
:1040800070B50E4D0121284600F0F7F8002814D035
:104090000B4C21780B4800294FF0020103D0FEF7AA
:1040A000ADF9002002E0FEF7ABF9012020702846B0
:1040B000BDE87040012100F0D3B870BD000C004095
:1040C000C1110020001001403EB504460121082026
:1040D000FFF7D8FC40F2E730ADF80000ADF804403F
:1040E00000200D4CADF80600ADF8020069462046F0
:1040F00000F0D6F80121204600F0B2F80122114666
:10410000204600F0C5F80121204600F0ACF800215F
:10411000204600F0A8F83EBD000C004070B52D4CC4
:104120000121204600F0A9F800284ED001212046A8
:1041300000F096F828490888401C0880274908881C
:10414000401C08802648018811B10188491E018061
:1041500024490888401C088023490888401C08809E
:1041600022490888401C088021490888401C088092
:1041700020480188491C01801F480188491C018092
:1041800002881E4C0025A1688A4210D31C4A12786E
:10419000012A0CD105801B48052917D00521A160F3
:1041A000012101700078FDF7B5FB174805702078F4
:1041B000411C2170642808D325701448FEF714F9B7
:1041C000EC21814301D01248058070BD0321A1601C
:1041D0000570E7E700100040B6110020D410002061
:1041E000BA100020D0100020B8110020D6100020F6
:1041F000D8100020BA110020BC110020D0110020DE
:10420000CA100020C9100020B4110020000801408D
:10421000DC1000203EB501211020FFF733FC0920FF
:10422000ADF8040041F61F40ADF8000000200B4C33
:10423000ADF80200ADF806006946204600F030F8FF
:104240000121204600F00CF801221146204600F022
:104250001FF80121204600F006F83EBD0010004086
:10426000C943018270470029018802D041F0010151
:1042700001E021F0010101807047038A002280895A
:104280000B4200EA010001D000B101221046704744
:10429000002A828901D00A4300E08A438281704764
:1042A00030B502881B4B1C4C98420DD0A0420BD05D
:1042B000B0F1804F08D0194DA84205D0184DA84242
:1042C00002D0184DA84203D122F070054A882A4333
:1042D000154DA84206D0154DA84203D022F44075D2
:1042E000CA882A4302808A8882850A880285984281
:1042F0000AD0A04208D00E4A904205D00D4A904202
:1043000002D00D4A904201D1097A018601218182B1
:1043100030BD0000002C014000340140000400408A
:1043200000080040000C0040001000400014004055
:1043300000400140004401400048014030B40C4AB4
:104340000C490D4B002000BF32F8104021F82040EE
:1043500033F8104001EB8005401CC0B26C8003288C
:10436000F2D3044A30BC383A0249044803F078B822
:10437000C2110020482E0020C8110020BA120020CF
:10438000104810B5C18806291BD3012141810021A5
:1043900081700846FDF7BEFA42F2F220FEF7E6FA17
:1043A0004FF47A70FDF7D0FC0320FEF707FF802161
:1043B0000548FEF725F8BDE8104040210348FEF708
:1043C0001DB810BDC810002000140140000C0140B1
:1043D0002DE9F041194E0024254640213046FEF7D4
:1043E0000FF80A20FDF7B0FC154F09E0C820FDF7D3
:1043F000ABFC02213846FDF7FAFF012806D1012562
:104400002046641C0528F1DB002D14D140213046E4
:10441000FDF7F4FF0B490020C88004464FF47A757D
:1044200005E009A001F07AFA2846FDF78DFC204648
:10443000641C0A28F5DBBDE8F0810000000C014097
:1044400000080140C8100020706F776572206F6609
:10445000660A00002DE9F04FCFB04822F94926A89E
:10446000FBF782FEF749482248310EA8FBF77CFE95
:10447000F4492422903139A8FBF776FE00273C4608
:104480003D46BA46142120A8FBF787FE002002F023
:1044900005FA00B24A90002002F02EFA00B26FF046
:1044A0007F464890304602F0F1F900B2499030461C
:1044B00002F0DCF900B24590E3480121A0F80010B9
:1044C0006FF07F4000210090F0234FF4A072084667
:1044D00001F0EAFF4FF6FF7846464346DBA2D421BF
:1044E000002002F091F93346DEA2E021002002F024
:1044F0008BF900260DF198090DF1E40B09EBC601CB
:1045000059F8360049685BF8262089B280B24346E4
:1045100002F07AF9761C092EF0DB00260DF18009F5
:104520000DF1380859F82620D4A101A801F006FAA7
:1045300008EBC60158F836004968801C89B280B281
:104540004FF6FF7301AA02F05FF9761C022EE9DB39
:10455000DFF82CB3CBA15E46BBF80C2001A801F01C
:10456000EDF90F984FF6FF7381B20E9801AA801CE7
:1045700080B202F049F9F289C2A101A801F0DEF986
:1045800011984FF6FF7381B2109801AA801C80B277
:1045900002F03AF97068FCF739F80022BB4BFBF7E0
:1045A000A1FFFCF7DFF84390FCF7B1F802460B4699
:1045B000B7A101A801F0C2F913984FF6FF7381B2B9
:1045C000129801AA801C80B202F01EF9B24800883D
:1045D000C0B24690012827D0022827D003282AD02D
:1045E000AEA101A801F0AAF90020469017984FF655
:1045F000FF7681B216983346801C80B201AA02F081
:1046000003F94698FCF702FF8F480088C0B2449037
:10461000012812D0022812D0032824D0042824D044
:104620000020A0A144900BE0A0A100E0A1A101A85E
:1046300001F084F9DAE7A1A1F9E7A2A100E0A3A1C2
:1046400001A801F07BF91998334681B2189801AAA4
:10465000801C80B202F0D8F84498FDF775F947B194
:10466000012F0AD103E09BA1EAE79CA1E8E79DA105
:1046700000E09DA101A801F061F91B984FF6FF73BE
:1046800081B21A9801AA801C80B202F0BDF8974846
:104690004FF47A7101260180FFF77EF900287FF43C
:1046A0000FAF0FB1FCF7E2FB90480188B1F57A7FBC
:1046B0002DD3002101800120FDF7C8FE02468CA108
:1046C00001A801F03BF94FF6FF7301AA4021002039
:1046D00002F09AF8BBF80E2088A101A801F02EF98B
:1046E0004FF6FF7301AA4C21002002F08DF8FDF770
:1046F000D7FEFCF70CF802460B4683A101A801F097
:104700001DF91E2301AA5821002002F07DF808217E
:104710008148FEF7C9F800287F484FF040016AD071
:10472000FEF7C2F810B359F824000126401C49F8DE
:104730002400304602F0A2F859F8242051A101A823
:1047400001F0FCF808EBC40158F834004968801CFB
:1047500089B280B24FF6FF7301AA02F055F814B186
:10476000012C04D00FE02098ABF80C000BE021984E
:1047700081B20020FDF77CF901210020FDF77EF9D0
:104780002199ABF80E1004216348FEF78DF880B331
:1047900059F824004E46401E49F82400012002F03A
:1047A0006DF856F8242037A101A801F0C7F808EBEE
:1047B000C40158F834004968801C89B280B24FF6B1
:1047C000FF7301AA02F020F814B1012C04D0B3E069
:1047D0002098ABF80C00AFE0219881B20020FDF7E3
:1047E00047F901210020FDF749F92198ABF80E00A7
:1047F000A2E09EE0FFE7FEF757F800BB0421464821
:10480000FEF752F8E0B12546641C082C00DD0024B8
:1048100008EBC500464640686FF07F4201B258F889
:10482000350000B2FDF798FA06EBC400002240689C
:1048300001B256F8340000B2FDF78EFA7CE07EE05B
:104840006CE000005CCA0108DE10002052656C6557
:10485000617365204461746520323031352E303407
:104860002E303100472D4C494E4B205453313030BF
:1048700020564558312E332E3200000025640000AA
:104880005C18002025342E346400000000408F4066
:1048900025302E3266000000E01000204357202013
:1048A000202000006E6F20200000000032373020F2
:1048B00020000000314B202000000000324B20205F
:1048C0000000000031333130000000003134393055
:1048D0000000000031353530000000003635302052
:1048E000000000006F6E20006F666600BA110020A5
:1048F0004144433A25642020000000004441433AEB
:104900002564202000000000426174746572793AC9
:1049100025302E33660000000008014020215F484A
:10492000FDF7C2FF28B12546641E7FF571AF08244C
:104930006EE7002E3FF4B0AEBAF1000F79D094B11B
:10494000012C23D0022C3BD0032C58D0042C59D05E
:10495000052C62D0062C70D0072C73D0082C6BD09D
:104960004FF0000AACE500208DF804004CAA0521A8
:1049700001A8FDF7BBFD28B101A801F0DDFCFBF7A4
:1049800090FE20902099ABF80C10E9E700208DF8FC
:1049900004004CAA052101A8FDF7A8FD70B101A8EB
:1049A000FBF707FC219081B2ABF80E100020FDF759
:1049B0005FF801210020FDF761F8D1E72198F2E7C7
:1049C00000208DF804004CAA072101A8FDF78EFDF8
:1049D00028B101A801F0B0FCFBF7C4FE4390DBF85E
:1049E0000400CBF800005E462D494398FBF7EEFB30
:1049F000FBF72AFE70602B48FCF78EFEB0E700F054
:104A00000FFDADE700208DF804004698401CC0B2B1
:104A1000032800D90020244909E000208DF8040073
:104A20004498401CC0B2042800D900201F490880C7
:104A300096E70AE001E005E020E00FB100278FE7EC
:104A400001278DE700F09CF98AE708EBC500464690
:104A500040686FF07F4201B258F8350000B2FDF7B0
:104A60007BF906EBC4000022406801B256F834001E
:104A700000B2FDF771F9254600260DE64A9801F0CF
:104A80000DFF489801F038FF499801F0FFFE459866
:104A900001F0ECFE4FB0BDE8F08F000000080140CF
:104AA00000007A445C180020E0100020DE10002096
:104AB00038B5204D80212846FDF7DEFE411E1E4CF4
:104AC000B1F5C77F03D8208B80F080000FE0B0F5F0
:104AD000FA7F2EDB208B0006208B02D520F0800091
:104AE00005E0401C2083208B032801D9002020836F
:104AF000208BC0B2FCF78AFC42F2F2200090228B9D
:104B00004FF6E073C8210F20FEF79CF9208B0B486D
:104B1000FCF702FE208B30B9608A20B90120606367
:104B200006484068206380212846FDF760FC002885
:104B3000F9D038BD00080140C81000205C180020E2
:104B400070B5154D04212846FDF7AEFE134C20B17B
:104B500060682060A0F57A7009E040212846FDF7E2
:104B6000A3FE002817D06068206000F57A706060AE
:104B7000002802DD0020606003E00949884200DA75
:104B80006160064840214038FBF707FBBDE87040F4
:104B90000248FCF7C1BD70BD000801405C18002050
:104BA000C8B5FFFF70B5254D20212846FDF764FEEE
:104BB0000021234CB0F5FA7F17DBE170608A0228F0
:104BC00011D002206082608AC0B2FCF7AFFE628A18
:104BD0000C217820FEF718FB20212846FDF707FC62
:104BE0000028F9D070BD6182EDE7401EB0F5C77FA7
:104BF000F8D8144890F840000128F3D1A078401C60
:104C0000A07094F90200032800DBA170A07848B1DD
:104C1000A078012803D0A078022803D003E0012067
:104C2000607000E061706078FCF774FE6278BDE847
:104C300070400F210920FEF797BA000000080140DC
:104C4000C810002078180020F8B542F2F225284656
:104C5000FDF78CFE174C628A0C217820FEF7D4FAFF
:104C600062780F210920FEF77FFA0021042208460E
:104C7000FDF750FE10484FF47A714FF6FF7340680D
:104C8000009590FBF1F002B25A213720FEF702FAAC
:104C900000954FF6E076E28A3346C821AA20FEF757
:104CA000F1FA0095228B3346C8210F20FEF7CAF88F
:104CB000F8BD0000C81000205C1800207FB5082156
:104CC0002B48FDF7A7FD00284DD02A4A01AB7832CA
:104CD00007CA07C32848002190F8412002B9019172
:104CE00090F8422002B9029190F8430000B9039174
:104CF000224C01A9206C0246401C09E051F82030EA
:104D00002BB1E58AAB4202D0E38220640EE0401C66
:104D10000328F3DB0023226427E000BF51F82300BF
:104D200010B3E58AA8421FD0E0822364206C0328D8
:104D300003DB00BF4FF0FF302064208BC0B2FCF7D4
:104D400065FBE08AC0B2FCF7FFFD42F2F220009062
:104D5000E28A4FF6E073C821AA20FEF793FA0648CC
:104D60001C38FCF7D9FC7FBD5B1C9342D6DBE1E726
:104D7000000801408CC8010878180020C8100020E5
:104D80002DE9F04FE9B05022F7493FA8FBF7ECF9C5
:104D9000F549702250310EA8FBF7E6F9F2492822B6
:104DA000C03155A8FBF7E0F9002425462746142119
:104DB00064A8FBF7F2F90E205390002001F06EFD7D
:104DC00000B26290002001F097FD00B26FF07F46C4
:104DD0005F90304601F05AFD00B26090304601F01D
:104DE00045FD00B261905422E0492AA8FBF7BCF9C6
:104DF00033A8B34654900021F0234FF4A072084624
:104E0000CDF800B001F050FB00260DF1FC080DF5C7
:104E1000AA794FF6FF7A00BF08EBC60158F83600B2
:104E2000496859F8262089B280B2534601F0ECFC5B
:104E3000761C0A2EF0DB0F98564681B20E98534628
:104E400080B2549A01F0E0FCBDF8F620C8A101A898
:104E500000F074FD1198334681B2109801AA80B217
:104E600001F0D2FCBDF8F820C1A101A800F066FD58
:104E70001398334681B2129801AA80B201F0C4FCA3
:104E8000BDF8FA20BAA101A800F058FD15983346E4
:104E900081B2149801AA80B201F0B6FC9DF8E80036
:104EA00033460028179881B2169880B275D0B1A207
:104EB00001F0AAFC9DF8E90033460028199881B258
:104EC000189880B26BD0ABA201F09EFC9DF8EA006E
:104ED000334600281B9881B21A9880B261D0A5A2EF
:104EE00001F092FC9DF8EB00334600281D9881B23A
:104EF0001C9880B257D09FA201F086FCB1464B4669
:104F00009DA20E21422001F07FFC9DA101A83B9AA9
:104F100000F014FD1F98334681B21E9801AA80B29A
:104F200001F072FCBDF8F02095A101A800F006FD8B
:104F30002198334681B2209801AA80B201F064FC26
:104F4000BDF8F4208AA101A800F0F8FC23983346AC
:104F500081B2229801AA80B201F056FCBDF8F2207D
:104F600083A101A800F0EAFC2598334681B2249879
:104F700001AA80B201F048FCDFF80CA20126202132
:104F8000D0465046FDF790FC78B12546641E17D5F3
:104F9000539C641E14E000E001E07CA288E77BA241
:104FA00092E77AA29CE779A2A6E704214046FDF7A2
:104FB0007BFCE0B125465398641C844200DB00244E
:104FC0000DF1380808EBC5005A46406801B258F8A0
:104FD000350000B2FCF7C0FE08EBC40000224068B8
:104FE00001B258F8340000B2FCF7B6FE04E04021EC
:104FF0004046FDF759FC18B9002EC0D0002F7CD0D8
:105000000E2C48D2DFE804F0072A48638097D8F7CF
:10501000F3F2F1F0EFAF00208DF8040063AA19213C
:1050200001A8FDF763FA48B100202AA901AA0E18C9
:10503000135C401C86F824301928F8DB0F984E4684
:1050400081B20E984B4680B251A201F0DDFB0F9861
:10505000334681B20E98549A80B21AE000208DF83F
:10506000040063AA192101A8FDF740FA20B101A8A4
:10507000FBF79FF8ADF8F60011984E4681B21098F4
:105080004B4680B24AA201F0BFFB119881B2109842
:105090005CE101F0B9FBC5E000208DF8040063AAD3
:1050A000192101A8FDF722FA20B101A8FBF781F828
:1050B000ADF8F80013984E4681B212984B4680B274
:1050C0003BA201F0A1FB139881B212983EE10020AF
:1050D0008DF8040063AA192101A8FDF707FA20B191
:1050E00001A8FBF766F8ADF8FA0015984E4681B2B4
:1050F00014984B4680B22EA200E053E101F084FBED
:10510000159881B2149821E19DF8E8004B460028DB
:10511000179881B2169880B201D01CA200E015A2A7
:1051200001F072FB9DF8E80018B100208DF8E8004E
:1051300078E00120FAE79DF8E9004B46002819982D
:1051400081B2189880B201D010A200E009A201F04B
:105150005BFB9DF8E90020B15FF000008DF8E900ED
:1051600060E00120FAE735E110CB01087818002053
:10517000256400006F6E20004C4F474F0000000078
:105180003078255800000000000801406F66660076
:10519000202020202020202020202020202020200F
:1051A000202020202020202020202020200000005F
:1051B00020202020000000009DF8EA004B46002837
:1051C0001B9881B21A9880B202D0AFF2400201E07F
:1051D000AFF2600201F018FB9DF8EA0048B1002030
:1051E0008DF8EA001EE0B5E08CE066E041E01DE0ED
:1051F00001E00120F4E79DF8EB004B4600281D98E4
:1052000081B21C9880B202D0AFF2800201E0AFF20E
:105210009C0201F0F9FA9DF8EB0028B15FF0000064
:105220008DF8EB000027E6E50120F9E700208DF876
:10523000040063AA092101A8FDF758F928B101A8C3
:1052400001F07AF8FBF74CFA3B901F984E4681B27A
:105250001E984B4680B2AFF2B40201F0D5FAAFF21D
:10526000E00101A83B9A00F069FB1F9881B21E98EB
:105270006CE000208DF8040063AA082101A8FDF766
:1052800035F930B101A801F057F8FBF729FAADF86C
:10529000F00021984E4681B220984B4680B255A22C
:1052A00001F0B2FABDF8F020AFF22C1101A800F025
:1052B00045FB219881B2209848E000208DF8040039
:1052C00063AA042101A8FDF711F930B101A801F08A
:1052D00033F8FBF705FAADF8F40023984E4681B297
:1052E00022984B4680B2AFF2381201F08DFABDF829
:1052F000F420AFF2841101A800F020FB239881B2C2
:10530000229823E000208DF8040063AA042101A85C
:10531000FDF7ECF830B101A801F00EF8FBF7E0F969
:10532000ADF8F20025984E4681B224984B4680B2E3
:10533000AFF2841201F068FABDF8F220AFF2D0119A
:1053400001A800F0FBFA259881B22498334680B278
:1053500001AA9EE654222AA92848FAF705FF274900
:10536000274854220860274800F0B5FA27984E468F
:1053700081B226984B4680B223A201F045FA4FF441
:105380007A70FCF7E1FC2798334681B2269820A278
:1053900080B201F039FA2798334681B226981EA2CE
:1053A00080B276E60EAE06EBC5005A46406801B202
:1053B00056F8350000B2FCF7CFFC06EBC400002223
:1053C000406801B256F8340000B2FCF7C5FC25462F
:1053D0000026D4E5629801F061FA5F9801F08CFA3A
:1053E000609801F053FA619801F040FA69B0BDE8A5
:1053F000F08F0000202020202020000078180020BE
:10540000DDCCBBAA00F80308536176652E2E2E0072
:10541000202020202020200053617665000000001D
:105420002DE9F04F95B000252E462822C34909A842
:10543000FAF79AFEC2480024DFF808934168019108
:1054400081680291C16803910169049141690591E4
:1054500081690691C1690791006A27464FF6FF7A74
:105460006FF07F4B089000214FF4A0720020401C89
:1054700080B2F028FBD3491C89B29142F6D30021B7
:10548000F0230846CDF800B001F00EF82021534675
:10549000ADA2084601F0B8F95346ACA22021702015
:1054A00001F0B2F95346AAA22021C02001F0ACF9C4
:1054B0004FF488785346A6A22021404601F0A4F973
:1054C0005346A4A23821002001F09EF90198FBF771
:1054D0001EF902460B46A0A1A14800F02FFA534640
:1054E0009F4A3821202001F08FF90298FBF70FF92D
:1054F00002460B4698A19A4800F020FA5346984A73
:105500003821702001F080F90398FBF700F902467A
:105510000B4691A1924800F011FA5346904A382167
:10552000C02001F071F90498FBF7F1F802460B4630
:1055300089A18B4800F002FA5346894A3821404637
:1055400001F062F9534687A25021002001F05CF976
:105550000598FBF7DCF802460B467FA1804800F077
:10556000EDF953467E4A5021202001F04DF906986E
:10557000FBF7CDF802460B4677A1794800F0DEF93B
:105580005346774A5021702001F03EF90798FBF707
:10559000BEF802460B4670A1714800F0CFF95346A1
:1055A0006F4A5021C02001F02FF90898FBF7AFF89F
:1055B00002460B4668A16A4800F0C0F95346684AA3
:1055C0005021404601F020F9534667A2682114207B
:1055D00001F01AF9534666A28021142001F014F953
:1055E0000DF1240808EB840138F92400B1F9021008
:1055F0000022FCF7B1FB00BFFEF7CEF9FEF736F84C
:10560000FEF7BEFE20214846FDF74EF910B10125F8
:10561000641E06E004214846FDF746F918B101254D
:10562000641C64B247E004214846FDF73DF908B127
:10563000012540E040214846FDF736F9A8B3012591
:105640002E46082C37DB31D13D484B494FF05402F0
:10565000016001994160029981600399C1600499D8
:10566000016105994161069981610799C1610899B4
:1056700001620146414800F02EF95546534640A2CA
:105680006821142001F0C0F84FF47A70FCF75CFB3D
:105690002B463DA26821142001F0B6F82B4632A219
:1056A0006821142001F0B0F82EE002E0092C42D06D
:1056B00001E0002DA0D00A2C01DB002402E0002C28
:1056C00000DA092406B3082C1BDA254900200870EB
:1056D00013AA06212248FCF709FF38B1204800F040
:1056E0002BFEFBF73FF801A941F8240008EB8401E9
:1056F00038F8240049885346194A01F085F80026F5
:10570000B1E60EB1092C16D008EB87004546B0F97A
:10571000021038F927005A46FCF71EFB05EB8400FF
:105720000022B0F9021035F92400FCF715FB002522
:1057300027462E4660E715B0BDE8F08F10C9010876
:1057400078180020000801404144430044414300D0
:105750002D2D00002D31300025362E326600000040
:10576000FC2900202D2D2D007361766500000000BE
:105770006578697400000000DDCCBBAA00F803085E
:10578000736176652E2E2E00202020202020200000
:105790000029818902D041F4005101E021F4005137
:1057A0008181704700B589B04FF4E130009000204E
:1057B000ADF80400ADF80600ADF80800ADF80C0037
:1057C0000C20ADF80A0004208DF81000094805905F
:1057D00008486946143006904FF4005007900001C5
:1057E000089004A8FBF70AFD0120FBF76DFC09B047
:1057F00000BD000044000240002A828A01D00A4312
:1058000000E08A43828270470246002012880A42E2
:1058100000D001207047000030B50446008A85B0F2
:105820000D464CF6FF710840E98801432182A189A9
:105830004EF6F3100140A8882A8910436A890A436A
:105840001043A081A08A4FF6FF410840A989014377
:10585000A1826846FEF72EF91B48844201D10398C5
:1058600000E00298A1890904002900EBC00101EBC6
:105870000010296802DA4FEA410101E04FEA810194
:10588000B0FBF1F06422B0FBF2F14FEA01114FEAF4
:1058900011136FF018056B4300EB8300A3891D04FF
:1058A0004FF0320306D503EBC000B0FBF2F000F07E
:1058B000070005E003EB0010B0FBF2F000F00F0072
:1058C0000843208105B030BD00380140C1F3080114
:1058D00081807047FEE72DE9F04105460E4690466F
:1058E000FCF708FC3520FCF7B9FA0127002405EB8A
:1058F000C420FCF7A1FB641CBC4201D20428F6D0F2
:105900002C46454404E002CE2046FCF7CFFB241D84
:10591000AC42F8D3BDE8F041FCF7C0BB0FB4054B77
:1059200010B503A9044A029800F054F910BC5DF8C0
:1059300014FB000085640008C81200200FB4084B57
:1059400010B504A902AA039800F044F9044602A97C
:10595000002000F0ECFC204610BC5DF814FB0000B9
:105960002F630008490050EAC12018BF04204A0DE7
:1059700018BF40F0010040F2FF72B2EB515F08BF68
:1059800040F00200012808BF05207047004870471A
:10599000CC1200202DE9F0414F1E00EBC701044658
:1059A000D1E9000115461E4637F006020DD02A4601
:1059B0003346FAF727FD7F1E04EBC703D3E9002324
:1059C000FAF77AFC37F00602F1D1022F25D0042F26
:1059D00013D0062F18BFBDE8F0812A463346FAF7E8
:1059E00011FDD4E90A23FAF767FC2A463346FAF791
:1059F00009FDD4E90823FAF75FFC2A463346FAF793
:105A000001FDD4E90623FAF757FC2A463346FAF794
:105A1000F9FCD4E90423FAF74FFC2A463346FAF797
:105A2000F1FCD4E90223FAF747FC2A463346FAF799
:105A3000E9FCD4E90023BDE8F041FAF73DBC0000E1
:105A4000024A00201107FAF7BCBD000001FDFFFF6C
:105A500002E008C8121F08C1002AFAD17047704737
:105A6000002001E001C1121F002AFBD17047000095
:105A70000149086070470000CC1200202DE9FF5F4B
:105A8000DDE90210020DDDF838B001430FD10F98A7
:105A900001244BA3012807D000980F9AC0E90031D8
:105AA000C0E90242BDE8FF9F6FEA0B01F4E7A2F2F2
:105AB000FF3244F61050424315140F9801280ED0BF
:105AC000A5EB0B00401C4FF000043E4EDFF8F890B1
:105AD000B0F1000AA04605DACAF1000717E0CBF1E1
